:020000040800F2
:10000000000002201124000811090008130900084B
:100010001509000817090008190900080000000068
:100020000000000000000000000000001B090008A4
:100030001D090008000000001F0900082109000830
:10004000612400086124000861240008612400087C
:10005000612400086124000861240008612400086C
:10006000612400086124000861240008612400085C
:10007000612400086124000861240008612400084C
:10008000612400086124000861240008612400083C
:10009000290900086124000861240008612400087F
:1000A000612400086124000861240008612400081C
:1000B000612400083909000861240008612400084F
:1000C00061240008612400086124000861240008FC
:1000D00061240008612400086124000861240008EC
:1000E00061240008612400086124000861240008DC
:1000F00061240008612400086124000861240008CC
:1001000061240008612400086124000861240008BB
:1001100061240008612400086124000861240008AB
:10012000612400086124000861240008612400089B
:1001300061240008000000000000000061240008A5
:10014000612400086124000861240008612400087B
:10015000612400086124000861240008612400086B
:10016000612400086124000861240008612400085B
:1001700061240008612400086124000800000000D8
:1001800000000000612400080000000000000000E2
:100190006124000800000000000000006124000845
:1001A00000000000000000000000000061240008C2
:1001B000612400086124000861240008612400080B
:0401C00061240008AE
:1001D00010B5054C237833B9044B13B10448AFF381
:1001E00000800123237010BD70000020000000007B
:1001F0002C2D000808B5034B1BB103490348AFF38E
:10020000008008BD00000000740000202C2D0008B4
:10021000034613F8012B002AFBD1181A0138704746
:1002200001F0FF01102A2BDB10F0070F08D010F8A7
:10023000013B013A8B422DD010F0070F42B3F6D1AB
:10024000F0B441EA012141EA014122F007047FF0C4
:1002500000070023F0E80256083C85EA010586EA1B
:10026000010685FA47F5A3FA87F586FA47F6A5FA57
:1002700087F68EB9EED1F0BC01F0FF0102F0070263
:1002800032B110F8013B013A83EA010313B1F8D10E
:100290000020704701387047002D06BF35460338EF
:1002A000073815F0010F07D1013015F4807F02BF28
:1002B000013015F4C03F0130F0BC0138704700BF79
:1002C00053B94AB9002908BF00281CBF4FF0FF31BD
:1002D0004FF0FF3000F074B9ADF1080C6DE904CEB9
:1002E00000F006F8DDF804E0DDE9022304B0704711
:1002F0002DE9F047089D04468E46002B4DD18A42D9
:10030000944669D9B2FA82F252B101FA02F3C2F10B
:10031000200120FA01F10CFA02FC41EA030E94409C
:100320004FEA1C48210CBEFBF8F61FFA8CF708FBBD
:1003300016E341EA034306FB07F199420AD91CEB95
:10034000030306F1FF3080F01F81994240F21C81C7
:10035000023E63445B1AA4B2B3FBF8F008FB10330F
:1003600044EA034400FB07F7A7420AD91CEB040444
:1003700000F1FF3380F00A81A74240F20781644414
:10038000023840EA0640E41B00261DB1D440002399
:10039000C5E900433146BDE8F0878B4209D9002DFD
:1003A00000F0EF800026C5E9000130463146BDE887
:1003B000F087B3FA83F6002E4AD18B4202D38242F1
:1003C00000F2F980841A61EB030301209E46002DA0
:1003D000E0D0C5E9004EDDE702B9FFDEB2FA82F2F5
:1003E000002A40F09280A1EB0C014FEA1C471FFA53
:1003F0008CFE0126200CB1FBF7F307FB131140EA3A
:1004000001410EFB03F0884208D91CEB010103F106
:10041000FF3802D2884200F2CB804346091AA4B2C8
:10042000B1FBF7F007FB101144EA01440EFB00FE9C
:10043000A64508D91CEB040400F1FF3102D2A64501
:1004400000F2BB800846A4EB0E0440EA03409CE7A0
:10045000C6F12007B34022FA07FC4CEA030C20FA4D
:1004600007F401FA06F31C43F9404FEA1C4900FA6D
:1004700006F3B1FBF9F8200C1FFA8CFE09FB1811EA
:1004800040EA014108FB0EF0884202FA06F20BD95D
:100490001CEB010108F1FF3A80F08880884240F2AD
:1004A0008580A8F102086144091AA4B2B1FBF9F0F1
:1004B00009FB101144EA014100FB0EFE8E4508D9EC
:1004C0001CEB010100F1FF346CD28E456AD9023871
:1004D000614440EA0840A0FB0294A1EB0E01A14256
:1004E000C846A64656D353D05DB1B3EB080261EBC4
:1004F0000E0101FA07F722FA06F3F1401F43C5E99E
:10050000007100263146BDE8F087C2F12003D840D3
:100510000CFA02FC21FA03F3914001434FEA1C4715
:100520001FFA8CFEB3FBF7F007FB10360B0C43EA07
:10053000064300FB0EF69E4204FA02F408D91CEBB7
:10054000030300F1FF382FD29E422DD902386344B5
:100550009B1B89B2B3FBF7F607FB163341EA034155
:1005600006FB0EF38B4208D91CEB010106F1FF38A4
:1005700016D28B4214D9023E6144C91A46EA00469B
:1005800038E72E46284605E70646E3E61846F8E62D
:100590004B45A9D2B9EB020864EB0C0E0138A3E776
:1005A0004646EAE7204694E74046D1E7D0467BE757
:1005B000023B614432E7304609E76444023842E7CF
:1005C000704700BF30B58BB00024059406940794A3
:1005D000089409940194224B1A6B42F004021A63A6
:1005E0001A6B02F004020192019A02941A6B42F013
:1005F00080021A631A6B02F080020292029A03943C
:100600001A6B42F001021A631A6B02F001020392A4
:10061000039A04941A6B42F002021A631B6B03F0F4
:1006200002030493049B0F4D22462021284601F02B
:10063000C9FA4FF4005305930B4B0693079405A991
:100640000A4801F0D3F92023059301230693079468
:10065000089405A9284601F0C9F90BB030BD00BFC8
:100660000038024000000240000021100008024053
:10067000044B834201D000BF7047034B01221A7024
:10068000704700BFD00000200000002008B572B6FF
:1006900001222021014801F095FAF9E7000002400B
:1006A00008B50A480A4B03604FF4E1334360002366
:1006B0008360C36003610C2242618361C36100F007
:1006C00041FD00B908BDFFF7E1FF00BF18010020A0
:1006D0000044004008B50D480D4B036006234360FD
:1006E00000238360C3604FF4202202614FF4801224
:1006F0004261037643768376C3760377437701F0CE
:100700002FFB00B908BDFFF7C1FF00BFA800002004
:100710000064004000B587B0002302930393049364
:100720000593009301931448144A026042F2CF02E9
:100730004260836042F20F72C2600361836100F025
:1007400055FB90B94FF48053029302A90A4800F078
:1007500086FB60B90023009301936946064800F0C8
:10076000EBFB30B907B05DF804FBFFF78FFFFFF735
:100770008DFFFFF78BFF00BFD0000020000400407A
:1007800000B58BB0012208920023059304930093D7
:10079000019302930393069307926946044801F07C
:1007A00085FB10B90BB05DF804FBFFF76FFF00BFCE
:1007B000A800002000B595B03422002107A801F060
:1007C00075FE00230293039304930593069300930D
:1007D0001F4A116C41F080511164126C02F080527A
:1007E0000092009A01931B490A6822F4404242F4A5
:1007F00080420A600A6802F440420192019A022291
:10080000079201210A9110210B910D920E930F91E5
:100810004FF4A8731093042311931292139207A814
:1008200000F0C2FE80B90F2302930221039100233E
:1008300004934FF480520592069302A800F01EFD27
:1008400020B915B05DF804FBFFF720FFFFF71EFF8E
:10085000003802400070004008B501F04BFAFFF785
:10086000A9FFFFF7AFFEFFF71BFFFFF733FFFFF70F
:1008700051FF084C0221204601F087FC064800F099
:100880004BF9FFF77DFF204601F0ACFB00B9FEE716
:10089000FFF7FCFEA8000020D000002030B597B084
:1008A00014AB184A002101F0CBFB48BB9DF8522045
:1008B0009DF8533043EA02239DF851209DF85410CF
:1008C0009DF855009DF856409DF8575005950494A5
:1008D00003900291019300929DF85030094A1268EA
:1008E000094907A801F0EAFD07A8FFF791FC4FF0BE
:1008F000FF3382B207A9054800F053FC17B030BDA2
:10090000FFF7C4FE8C000020442D000818010020D1
:10091000FEE7FEE7FEE7FEE7FEE770477047704739
:1009200008B501F001FA08BD08B5024801F04BFC1A
:1009300008BD00BFA800002008B5024800F034F947
:1009400008BD00BFD000002000B583B00021009199
:100950000C4B5A6C42F480425A645A6C02F4804246
:100960000092009A01911A6C42F080521A641B6C3A
:1009700003F080530193019B072001F029F903B094
:100980005DF804FB0038024010B588B000230393E3
:1009900004930593069307930268194B9A4201D07A
:1009A00008B010BD0024019403F5EA331A6C42F03C
:1009B00000721A641A6C02F000720192019A029499
:1009C0001A6B42F001021A631B6B03F001030293DE
:1009D000029B4FF4C0530393022304930323069313
:1009E0000923079303A9074801F000F8224621468E
:1009F000142001F0FFF8142001F034F9D0E700BF13
:100A0000006400400000024002680E4B9A4200D091
:100A1000704700B583B00021019103F50D331A6CC6
:100A200042F002021A641B6C03F002030193019B63
:100A30000A461D2001F0DEF81D2001F013F903B075
:100A40005DF804FB0004004000B589B00023039367
:100A500004930593069307930268154B9A4202D0BC
:100A600009B05DF804FB0021019103F5FA331A6C1B
:100A700042F400321A641A6C02F400320192019AB4
:100A800002911A6B42F001021A631B6B03F001031F
:100A90000293029B0C2303930223049303230693E4
:100AA0000723079303A9034800F0A0FFD8E700BF7E
:100AB000004400400000024010B4036A046A24F0BD
:100AC00001040462846924F0F00C4CEA021223F061
:100AD0000A030B43826103625DF8044B704710B454
:100AE000046A24F0100404628469036A24F4704CDC
:100AF0004CEA023223F0A00343EA0113826103624D
:100B00005DF8044B7047836823F070030B4343F098
:100B1000070383607047000090F83D30DBB2012B83
:100B200037D1022380F83D300268D36843F00103D7
:100B3000D3600368194A934220D0B3F1804F1DD08F
:100B4000A2F57C42934219D002F58062934215D0FF
:100B500002F58062934211D002F5784293420DD0A3
:100B600002F57052934209D0A2F59432934205D017
:100B70001A6842F001021A60002070479A6802F079
:100B80000702062A07D01A6842F001021A60002004
:100B90007047012070470020704700BF00000140EF
:100BA000704770477047704710B5044603681A696C
:100BB00012F0020F11D0DA6812F0020F0DD06FF0B0
:100BC00002021A610123037703689B6913F0030F84
:100BD00070D0FFF7E6FF0023237723681A6912F02D
:100BE000040F12D0DA6812F0040F0ED06FF0040276
:100BF0001A610223237723689B6913F4407F5FD037
:100C00002046FFF7CEFF0023237723681A6912F0EE
:100C1000080F12D0DA6812F0080F0ED06FF0080239
:100C20001A61042323772368DB6913F0030F4ED086
:100C30002046FFF7B6FF0023237723681A6912F0D6
:100C4000100F12D0DA6812F0100F0ED06FF01002F1
:100C50001A61082323772368DB6913F4407F3DD0B2
:100C60002046FFF79EFF0023237723681A6912F0BE
:100C7000010F03D0DA6812F0010F36D123681A6928
:100C800012F0800F03D0DA6812F0800F34D123689D
:100C90001A6912F0400F03D0DA6812F0400F32D117
:100CA00023681A6912F0200F03D0DA6812F0200FBF
:100CB00030D110BDFFF774FF2046FFF773FF8AE7BE
:100CC0002046FFF76DFF2046FFF76CFF9BE72046AD
:100CD000FFF766FF2046FFF765FFACE72046FFF70A
:100CE0005FFF2046FFF75EFFBDE76FF001021A616C
:100CF0002046FFF7BDFCC1E76FF080021A61204675
:100D000000F061F9C3E76FF040021A612046FFF777
:100D10004AFFC5E76FF020021A61204600F052F941
:100D2000C7E700000368304A904212D0B0F1804F0C
:100D30000FD0A2F57C4290420BD002F58062904227
:100D400007D002F58062904203D002F578429042CB
:100D500003D123F070034A681343234A90422AD0F8
:100D6000B0F1804F27D0A2F57C42904223D002F50B
:100D7000806290421FD002F5806290421BD002F543
:100D80007842904217D002F57052904213D002F58B
:100D9000806290420FD002F5806290420BD0A2F5A3
:100DA0009832904207D002F58062904203D002F55B
:100DB0008062904203D123F44073CA68134323F046
:100DC00080034A69134303608B68C3620B688362C4
:100DD000054B984203D003F58063984201D10B691B
:100DE00003630123436170470000014040B310B525
:100DF000044690F83D30F3B1022384F83D3021469B
:100E000051F8040BFFF78EFF012384F8463084F875
:100E10003E3084F83F3084F8403084F8413084F824
:100E2000423084F8433084F8443084F8453084F804
:100E30003D30002010BD80F83C30FFF7E5FDDBE7DA
:100E40000120704710B4846824F47F4C42EA0322E6
:100E50000A4342EA0C0282605DF8044B704790F846
:100E60003C30012B66D010B50446012380F83C309D
:100E7000022380F83D300268936823F47F4323F017
:100E8000770393600B68602B40D022D8402B47D06B
:100E90000BD9502B0ED1CA6849680068FFF70CFEC9
:100EA00050212068FFF72FFE04E0202B0CD008D93A
:100EB000302B09D0012384F83D30002084F83C0019
:100EC00010BD0BB1102BF5D119462068FFF71BFEA2
:100ED000F0E7702B0ED0B3F5005FEBD1CB684A681A
:100EE00089680068FFF7AEFF2268936843F4804387
:100EF0009360DFE7CB684A6889680068FFF7A2FF64
:100F00002268936843F077039360D3E7CA6849681F
:100F10000068FFF7E4FD60212068FFF7F4FDC9E7F2
:100F2000CA6849680068FFF7C7FD40212068FFF7DD
:100F3000EAFDBFE70220704790F83C30012B3DD01E
:100F400010B4012380F83C30022380F83D30036860
:100F50005A689C6822F0700C0A6842EA0C025A60D7
:100F60000368174A93421AD0B3F1804F17D0A2F505
:100F70007C42934213D002F5806293420FD002F577
:100F8000806293420BD002F57842934207D002F57B
:100F90007052934203D0A2F59432934204D124F0CC
:100FA00080044A6814439C60012380F83D3000238C
:100FB00080F83C3018465DF8044B704702207047BB
:100FC000000001407047704738B504460268136955
:100FD00023F44053C1680B431361836802691343D0
:100FE00042691343C2691A430168CB6823F416436C
:100FF00023F00C031343CB600268536923F440735E
:1010000081690B4353610368314A934206D002F56C
:101010008062934202D000F0E7F901E000F0F4F9B9
:10102000E369B3F5004F29D00021031849411B188B
:1010300041F10001C90041EA5371DB0018186368EF
:101040004FEA83024FEA937341F10001FFF738F949
:10105000204DA5FB00325109642303FB11031B0142
:101060003233A5FB03235B0903F0F00202EB01120C
:1010700003F00F03216813448B6038BD002302186E
:1010800043EB0301121841F10001C90041EA52711A
:10109000D200101841F10001626892185B41FFF71D
:1010A0000FF90C4DA5FB00325109642303FB11031A
:1010B000DB003233A5FB03235B095A0002F4F8720C
:1010C00002EB011203F00703216813448B60D4E79D
:1010D000001001401F85EB512DE9F84305460F46EE
:1010E00016469946DDF820802C68246837EA040308
:1010F0000CBF4FF0010C4FF0000CB4451FD1B8F1FC
:10110000FF3FF1D0B8F1000F05D000F019FEA0EBC1
:1011100009004045E8D92A68D36823F4D073D36026
:101120002A68536923F001035361202385F83D3079
:1011300085F83E30002385F83C30032000E0002095
:10114000BDE8F88358B310B5044690F83D300BB3B2
:10115000242384F83D302268D36823F40053D360FD
:101160002046FFF731FF2268136923F4904313618F
:101170002268536923F02A0353612268D36843F439
:101180000053D36000202064202384F83D3084F88D
:101190003E3010BD80F83C30FFF756FCD8E7012008
:1011A00070472DE9F04182B01E4690F83D30DBB229
:1011B000202B54D104460D469046002953D0002AD6
:1011C00053D090F83C30012B51D0012380F83C30B3
:1011D00000230364212380F83D3000F0B1FD074671
:1011E000A4F82480A4F82680A368B3F5805F05D016
:1011F0004FF00008002384F83C3012E0236913B15B
:101200004FF00008F6E7A8460025F3E738F8023B60
:101210002268C3F308035360E28C92B2013A92B29F
:10122000E284E38C9BB273B100963B46002280219E
:101230002046FFF751FFE0B9002DE7D015F8012B4C
:1012400023685A60E8E700963B460022402120468A
:10125000FFF742FF78B9202384F83D3000E00220F8
:1012600002B0BDE8F0810120FAE70120F8E7022092
:10127000F6E70320F4E70320F2E70000002800F07F
:101280009B8070B50D4604464F4B1B6803F00F035F
:101290008B4208D2CBB24C4A1370136803F00F0391
:1012A0008B4240F08B80236813F0020F17D013F0AD
:1012B000040F04D0454A936843F4E05393602368D5
:1012C00013F0080F04D0414A936843F460439360DD
:1012D0003E4A936823F0F003A1680B4393602368B0
:1012E00013F0010F32D06368012B21D09A1E012A1E
:1012F00025D9364A126812F0020F61D033498A6844
:1013000022F0030213438B6000F01AFD06462F4BB8
:101310009B6803F00C036268B3EB820F16D000F0F9
:101320000FFD801B41F288339842F0D9032042E040
:10133000264A126812F4003FE0D101203BE0234A24
:10134000126812F0007FD9D1012034E01E4B1B68D7
:1013500003F00F03AB4207D9EAB21B4B1A701B68AC
:1013600003F00F03AB422DD1236813F0040F06D016
:10137000164A936823F4E053E1680B4393602368B3
:1013800013F0080F07D0114A936823F460432169D2
:1013900043EAC103936000F047F80C4B9B68C3F32A
:1013A00003130B4AD35CD8400A4B18600A4B1868E9
:1013B00000F07AFC002070BD012070470120FAE7A0
:1013C0000120F8E70120F6E7003C02400038024027
:1013D000742D00080800002004000020014B18684C
:1013E000704700BF0800002008B5FFF7F7FF044B67
:1013F0009B68C3F38223034AD35CD84008BD00BF77
:1014000000380240842D000808B5FFF7E7FF044BC1
:101410009B68C3F34233034AD35CD84008BD00BF86
:1014200000380240842D000808B55C4B9B6803F02F
:101430000C03082B07D00C2B5BD0042B01D0584891
:1014400008BD5848FCE7554B5A6802F03F025B68FC
:1014500013F4800F2AD0514B5968C1F3881C4FEA0E
:101460004C11B1EB0C006EEB0E0E4FEA8E1343EAFB
:1014700090638101091A63EB0E03DB0043EA5173A9
:10148000C90011EB0C0C43F10003590200234FEA91
:101490004C2041EADC51FEF713FF404B5B68C3F37D
:1014A000014301335B00B0FBF3F0C9E73B4B5968E4
:1014B000C1F3881C4FEA4C11B1EB0C006EEB0E0E21
:1014C0004FEA8E1343EA90638101091A63EB0E031E
:1014D000DB0043EA5173C90011EB0C0C43F100032C
:1014E000990200234FEA8C2041EA9C51FEF7E8FE66
:1014F000D3E72A4B5A6802F03F025B6813F4800F6F
:1015000028D0264B5968C1F3881C4FEA4C11B1EB27
:101510000C006EEB0E0E4FEA8E1343EA90638101CE
:10152000091A63EB0E03DB0043EA5173C90011EBA8
:101530000C0C43F10003590200234FEA4C2041EA0E
:10154000DC51FEF7BDFE154B5B68C3F30273B0FBC5
:10155000F3F075E7114B5968C1F3881C4FEA4C1141
:10156000B1EB0C006EEB0E0E4FEA8E1343EA906364
:101570008101091A63EB0E03DB0043EA5173C900D2
:1015800011EB0C0C43F10003990200234FEA8C206D
:1015900041EA9C51FEF794FED5E700BF00380240B7
:1015A0000024F40000127A00002800F0018270B5D7
:1015B00082B00446036813F0010F41D0994B9B6839
:1015C00003F00C03042B32D0964B9B6803F00C0302
:1015D000082B27D0934B9B6803F00C030C2B59D09E
:1015E0006368B3F5803F5BD0B3F5A02F5ED08D4B21
:1015F0001A6822F480321A601A6822F480221A6073
:101600006368002B5CD000F09BFB0546854B1B6894
:1016100013F4003F14D100F093FB401B6428F5D96C
:101620000320CCE17F4B5B6813F4800FD2D07D4B5D
:101630001B6813F4003F03D06368002B00F0BA81ED
:10164000236813F0020F60D0764B9B6813F00C0FE9
:101650004AD0744B9B6803F00C03082B3FD0714BAE
:101660009B6803F00C030C2B69D0E368002B75D04A
:101670006D4B01221A6000F063FB0546694B1B6845
:1016800013F0020F61D100F05BFB401B0228F5D97B
:10169000032094E1634B5B6813F4800FA0D0C6E78E
:1016A000604A136843F480331360A9E75D4B1A68FE
:1016B00042F480221A601A6842F480321A609FE76E
:1016C00000F03EFB0546574B1B6813F4003FB7D0B4
:1016D00000F036FB401B6428F5D903206FE1514B25
:1016E0005B6813F4800FBAD14E4B1B6813F0020FE6
:1016F00003D0E368012B40F05F814A4A136823F06E
:10170000F803216943EAC1031360236813F0080F4B
:1017100049D06369002B33D0434B0122C3F8802E9C
:1017200000F00EFB05463F4B5B6F13F0020F3AD102
:1017300000F006FB401B0228F5D903203FE1394B9E
:101740005B6813F4800F90D1CEE7364A136823F01C
:10175000F803216943EAC1031360D6E7324B002244
:101760001A6000F0EDFA05462E4B1B6813F0020FCD
:10177000CBD000F0E5FA401B0228F5D903201EE18A
:10178000294B0022C3F8802E00F0DAFA0546254BDB
:101790005B6F13F0020F06D000F0D2FA401B022854
:1017A000F5D903200BE1236813F0040F76D01D4B0D
:1017B0001B6C13F0805F33D100230193194B1A6C1B
:1017C00042F080521A641B6C03F080530193019B1A
:1017D0000125164B1B6813F4807F29D0A368012BC9
:1017E0003AD0052B3ED00F4B1A6F22F001021A6738
:1017F0001A6F22F004021A67A368002B3CD000F095
:101800009FFA0646074B1B6F13F0020F45D100F0FD
:1018100097FA801B41F288339842F3D90320CEE037
:101820000025D6E700380240000047420070004023
:101830006B4A136843F48073136000F081FA064624
:10184000674B1B6813F4807FC8D100F079FA801BC6
:101850000228F5D90320B2E0624A136F43F0010376
:101860001367C9E75F4B1A6F42F004021A671A6FD9
:1018700042F001021A67BFE700F062FA0646594BD0
:101880001B6F13F0020F08D000F05AFA801B41F2D0
:1018900088339842F3D9032091E0EDB9A369002B76
:1018A00000F08C804F4A926802F00C02082A54D053
:1018B000022B17D04C4B00221A6600F041FA044666
:1018C000484B1B6813F0007F45D000F039FA001B2D
:1018D0000228F5D9032072E0424A136C23F08053AA
:1018E0001364DBE7404B00221A6600F029FA054634
:1018F0003C4B1B6813F0007F06D000F021FA401B20
:101900000228F5D903205AE0E369226A1343626A88
:1019100043EA8213A26A5208013A43EA0243E26AA6
:1019200043EA0263226B43EA02732E4A53602E4B52
:1019300001221A6600F004FA04462A4B1B6813F0D1
:10194000007F06D100F0FCF9001B0228F5D9032026
:1019500035E0002033E0002031E0012B31D0214B75
:101960005B6803F48001E26991422CD103F03F02ED
:10197000216A8A4229D1616A47F6C0721A40B2EBE5
:10198000811F24D103F44031A26A5208013AB1EB1D
:10199000024F1ED103F07062E16AB2EB016F1AD1FF
:1019A00003F0E043226BB3EB027F16D1002006E088
:1019B00001207047012002E0012000E0002002B079
:1019C00070BD0120FBE70120F9E70120F7E70120C6
:1019D000F5E70120F3E70120F1E70120EFE700BF81
:1019E00000700040003802400000474200230F2BE7
:1019F00000F2DE8070B582B060E085685E0003248E
:101A0000B44025EA0405CC68B4402C4384604568A2
:101A100025EA02054C68C4F300129A402A4342604A
:101A20005AE0DC08083450F8246003F007029500FF
:101A30000F22AA4026EA020E0A69AA4042EA0E02D2
:101A400040F824205CE0062200E0002202FA0EF2B8
:101A50002A430234574D45F82420574A14686FEA48
:101A60000C0224EA0C054E6816F4803F01D04CEAC3
:101A70000405514C2560646802EA04054E6816F4BA
:101A8000003F01D04CEA04054B4C6560A46802EAB3
:101A900004054E6816F4801F01D04CEA0405464C3C
:101AA000A560E46822404D6815F4001F01D04CEA9F
:101AB0000402414CE26001330F2B77D801229A4097
:101AC0000C6804EA020C32EA0404F4D14C6804F015
:101AD0000304013C012C90D94A6802F00302032A56
:101AE00009D0C4685D000322AA4024EA02048A687F
:101AF000AA402243C2604A6802F00302022A90D040
:101B000004684FEA430E032202FA0EF224EA0204AA
:101B10004A6802F0030202FA0EF2224302604A68A7
:101B200012F0805FC7D000220192244A546C44F422
:101B300080445464526C02F480420192019A9C08E1
:101B4000A51C1C4A52F8255003F003024FEA820EEE
:101B50000F2202FA0EF225EA0205194A90423FF4DA
:101B600074AF02F58062904216D002F58062904216
:101B700014D002F58062904212D002F58062904249
:101B800010D002F5806290420ED002F58062904241
:101B90003FF459AF072259E7012257E7022255E7E0
:101BA000032253E7042251E705224FE702B070BD3C
:101BB000704700BF00380140003C0140003802403F
:101BC000000002400AB181617047090481617047D9
:101BD000074AD36823F4E0631B041B0C000200F4E3
:101BE000E060034343F0BF6343F40033D3607047C6
:101BF00000ED00E000B5194BDB68C3F30223C3F12D
:101C0000070CBCF1040F28BF4FF0040C03F1040EC5
:101C1000BEF1060F18D9033B4FF0FF3E0EFA0CFC45
:101C200021EA0C0199400EFA03F322EA0303194357
:101C300000280BDB0901C9B200F1604000F56140EA
:101C400080F800135DF804FB0023E5E700F00F00C7
:101C50000901C9B2024B1954F4E700BF00ED00E0DE
:101C600014ED00E0002807DB00F01F02400901230B
:101C70009340024A42F82030704700BF00E100E084
:101C80000138B0F1807F0BD24FF0E0235861054A54
:101C9000F02182F823100020986107221A61704712
:101CA0000120704700ED00E010B504460E4B187897
:101CB0004FF47A73B3FBF0F30C4A1068B0FBF3F007
:101CC000FFF7DEFF68B90F2C01D901200AE00022DE
:101CD00021464FF0FF30FFF78DFF054B1C600020C1
:101CE00000E0012010BD00BF01000020080000201E
:101CF0000400002008B50B4B1A6842F400721A6009
:101D00001A6842F480621A601A6842F480721A609B
:101D10000320FFF75DFF0020FFF7C6FFFEF714FE6C
:101D2000002008BD003C0240034A1168034B1B78A9
:101D30000B441360704700BF5C01002001000020CD
:101D4000014B1868704700BF5C010020034AD2F8BD
:101D5000883043F47003C2F88830704700ED00E02B
:101D6000002800F0A18038B5044690F82030D3B1A7
:101D70002268136823F002031360FFF7E1FF0546B2
:101D800023685A6812F0020F10D0FFF7D9FF401BEA
:101D90000A28F5D9636A43F400336362052384F8A3
:101DA0002030012038BDFEF7EFFDE1E71A6842F070
:101DB00001021A60FFF7C4FF054623685A6812F053
:101DC000010F0DD1FFF7BCFF401B0A28F5D9636A4C
:101DD00043F400336362052384F820300120E1E7F7
:101DE000227E012A3DD01A6822F080021A60637EAA
:101DF000012B3BD02268136823F040031360A37EBD
:101E0000012B39D02268136823F020031360E37E8E
:101E1000012B37D02268136843F010031360237F2F
:101E2000012B35D02268136823F008031360637F09
:101E3000012B33D02268136823F004031360A368D6
:101E4000E268134322691343626913436268013AEB
:101E500021681343CB6100206062012384F82030A5
:101E6000A0E71A6842F080021A60C0E7226813688F
:101E700043F040031360C2E72268136843F0200375
:101E80001360C4E72268136823F010031360C6E7E9
:101E90002268136843F008031360C8E722681368D8
:101EA00043F004031360CAE70120704790F8203024
:101EB000013BDBB2012B05D9436A43F48023436223
:101EC0000120704730B5464BD3F8002242F00102A2
:101ED000C3F80022D3F8002222F47C52C3F8002277
:101EE000D3F80022486A42EA0022C3F800224A6975
:101EF00002F01F02012000FA02F2D3F81C026FEA7E
:101F0000020C20EA0200C3F81C02CB69C3B9344BAF
:101F1000D3F80C020CEA0000C3F80C028C88486964
:101F2000CD6844EA0544483043F830408C6808885E
:101F300040EA04404C6904F1480E03EBCE035860BC
:101F4000CB69012B1ED08B69002B33D12448D0F8EC
:101F500004320CEA0303C0F804320B698BBB20483F
:101F6000D0F814320CEA0303C0F814320B6A012BC8
:101F70002ED01B4AD2F8003223F00103C2F80032FF
:101F8000002030BD164BD3F80C021043C3F80C02EE
:101F90008C8848690D6844EA0544483043F830406D
:101FA00088894C698D6840EA0540483403EBC403D6
:101FB0005860C8E70A48D0F804321343C0F8043226
:101FC000CBE70748D0F814321343C0F81432CDE7FA
:101FD0000349D1F81C321A43C1F81C22C9E700BFDB
:101FE0000064004070B5044690F82050EDB2012D19
:101FF00006D0436A43F4002343620125284670BD9E
:10200000022380F820300268136823F00103136074
:10201000FFF796FE064623685B6813F0010F0CD0AD
:10202000FFF78EFE831B0A2BF5D9636A43F4003356
:102030006362052384F82030E0E700256562DDE770
:1020400090F820C00CF1FF3C5FFA8CFCBCF1010F52
:1020500000F2958030B451B90468E46814F0030FBD
:1020600010D1436A43F400134362012077E004680F
:10207000246914F0030F05D1436A43F4001343624B
:1020800001206CE001F11B04240105682C5904F0C7
:1020900004049460002C64D101F11B042401056840
:1020A0002C59640D1460046801F11B0C4FEA0C1CE0
:1020B00054F80C4004F00204D4600468644464687A
:1020C00004F00F041461046864446468C4F30724D2
:1020D0009461046864446468240C5461026802EBEF
:1020E0000112D2F8B8211A70026802EB0112D2F87C
:1020F000B821C2F307225A70026802EB0112D2F82B
:10210000B821C2F307429A70026802EB0112D2F8BA
:10211000B821120EDA70026802EB0112D2F8BC216B
:102120001A71026802EB0112D2F8BC21C2F3072235
:102130005A71026802EB0112D2F8BC21C2F30742C5
:102140009A71026802EB0112D2F8BC21120EDA7108
:1021500079B90268D36843F02003D360002030BC13
:10216000704701F11B04240105682C59E4085460F0
:1021700099E70268136943F020031361EEE7436AAD
:1021800043F4802343620120704790F82030013BE4
:10219000DBB2012B05D9436A43F48023436201205B
:1021A00070470268536919435161002070477047B6
:1021B0007047704770477047704770477047704767
:1021C0007047704770472DE9F84F054603685C6912
:1021D000D3F804809F68D3F80CB0D3F810A0D3F8DC
:1021E000189014F001063BD017F0010616D001221A
:1021F0009A6017F0020F08D117F0040F0CD117F0F6
:10220000080606D04FF4805608E0FFF7D0FF0026FE
:1022100004E0FFF7CFFF01E04FF4006617F4807F82
:102220000DD02B684FF480729A6017F4007F40F055
:10223000868017F4806F00F0868046F4005617F40D
:10224000803F0DD02B684FF480329A6017F4003F26
:1022500040F0838017F4802F00F0838046F400461E
:1022600014F0080F07D01BF0100F04D046F40076CE
:102270002B681022DA6014F0040F02D01BF0080F54
:1022800079D114F0020F04D02B68DB6813F0030F30
:1022900078D114F0400F07D01AF0100F04D046F494
:1022A00080662B6810221A6114F0200F02D01AF0F9
:1022B000080F6BD114F0100F04D02B681B6913F0BA
:1022C000030F6AD114F4003F02D018F0100F68D148
:1022D00014F4803F02D018F0080F69D114F4004FB5
:1022E0007AD018F0040F74D014F4807F04D019F061
:1022F000010F01D046F0010614F4007F04D019F05C
:10230000020F01D046F0020614F4806F04D019F0D9
:10231000040F01D046F0040614F4006F59D019F0F0
:10232000700956D0B9F1400F65D058D8B9F1200FD7
:102330005ED0B9F1300F42D146F0200644E0284685
:10234000FFF736FF7BE717F4006F02D046F48046B4
:1023500075E72846FFF72FFF71E72846FFF729FFAB
:102360007EE717F4002F02D046F4803678E728463F
:10237000FFF722FF74E72B680822DA602846FFF790
:102380001CFF7EE72846FEF789FA82E72B680822C1
:102390001A612846FFF713FF8CE72846FFF70EFF68
:1023A00090E72B6810225A602846FFF709FF8FE755
:1023B0002B6808225A602846FFF703FF8EE7B9F121
:1023C000100F01D146F008062A68936923F07003C4
:1023D00093612B6804225A609EB9BDE8F88FB9F169
:1023E000500F0BD0B9F1600FEED146F48076EBE7D9
:1023F00046F01006E8E746F04006E5E746F08006BE
:10240000E2E76B6A1E436E622846FFF7DBFEE4E7F5
:10241000DFF834D00D480E490E4A002302E0D458AC
:10242000C4500433C4188C42F9D30B4A0B4C00231C
:1024300001E013600432A242FBD3FFF787FC00F0F7
:1024400011F8FEF709FA7047000002200000002092
:1024500070000020D02D00087000002074010020C2
:10246000FEE7000070B50D4D0D4C641BA410002656
:10247000A64209D10B4D0C4C00F058FC641BA41073
:102480000026A64205D170BD55F8043B9847013699
:10249000EEE755F8043B98470136F2E7C82D0008EF
:1024A000C82D0008C82D0008CC2D000802440346A2
:1024B000934200D1704703F8011BF9E70EB400B551
:1024C0009CB01DAB029006906FF000410948079147
:1024D0000491094953F8042B05910068019302A95E
:1024E00000F068F8029B00221A701CB05DF804EB43
:1024F00003B070470C0000200802FFFF2DE9F047F1
:102500008E689E4282460C4690461F4638D88A897D
:1025100012F4906F32D025680969A5EB010965694D
:1025200005EB450505EBD57501334B446D109D4218
:1025300038BF1D46530531D5294600F043FB0646FA
:1025400050B90C23CAF80030A38943F04003A3819B
:102550004FF0FF30BDE8F08721694A4600F0BEFA2F
:10256000A38923F4906343F08003A381266165610E
:102570004E44A5EB09052660A5603E46BE4200D943
:102580003E4620683246414600F0B6FAA3689B1BDF
:10259000A3602368334423600020DBE72A4600F071
:1025A0006BFB06460028E1D12169504600F0BEFAD7
:1025B000C7E700002DE9F04F98468B891B069DB0B8
:1025C00007460D4614460ED50B6963B9402100F04D
:1025D000F9FA2860286120B90C233B604FF0FF30E6
:1025E000D1E040236B610023099320238DF829302B
:1025F000CDF80C803023DFF8A8818DF82A304FF019
:10260000010923469A4613F8012B0AB1252AF9D16C
:10261000BAEB040B0BD05B46224629463846FFF73F
:102620006DFF013000F0AA80099A5A4409929AF885
:102630000030002B00F0A28000234FF0FF32CDE9E4
:1026400005230AF1010A049307938DF853301A9376
:102650005446052214F8011B5148FDF7E1FD049A88
:10266000D8B9D00644BF20238DF85330110744BF9A
:102670002B238DF853309AF800302A2B15D0079A67
:10268000544600204FF00A0C214611F8013B303B24
:10269000092B4ED9B0B1079214E0A0EB080309FA58
:1026A00003F313430493A246D2E7039B191D1B684F
:1026B0000391002BBBBF5B4242F0020207930793DA
:1026C000B8BF049223782E2B0CD163782A2B35D1F6
:1026D000039B1A1D1B680392002BB8BF4FF0FF33FA
:1026E00002340593DFF8C8A0217803225046FDF795
:1026F00097FD40B14023A0EB0A0003FA00F0049BD1
:1027000003430134049314F8011B26488DF8281064
:102710000622FDF785FD002838D0234B1BBB039B09
:10272000073323F0070308330393099B33440993CA
:1027300067E70CFB02320C460120A5E700230134B9
:10274000059319464FF00A0C204610F8012B303A39
:10275000092A03D9002BC5D00591C3E70CFB012141
:1027600004460123F0E703AB00932A460F4B04A96C
:102770003846AFF30080421C0646D6D1AB895B06D3
:102780003FF52CAF09981DB0BDE8F08F03AB009367
:102790002A46064B04A9384600F07AF8EBE700BF5A
:1027A0008C2D0008962D000800000000FD24000874
:1027B000922D00082DE9F047164699468A680B6964
:1027C000DDF820809342B8BF1346336091F8432070
:1027D00007460C460AB1013333602368990642BFAD
:1027E000336802333360256815F0060506D104F11D
:1027F000190AE36832689B1AAB4226DC94F843203E
:10280000131E226818BF012392062BD404F1430241
:1028100049463846C04701301ED02368E568326813
:1028200003F00603042B08BFAD1AA36822690CBF8E
:1028300025EAE57500259342C4BF9B1AED180026D2
:102840001A34B5421AD1002008E001235246494605
:102850003846C047013003D14FF0FF30BDE8F08764
:102860000135C6E7E1185A1C302081F843002244A4
:1028700094F8451082F843100233C7E7012322463B
:1028800049463846C0470130E6D00136D9E7000056
:102890002DE9FF470F7E0C9D782F914680460C4610
:1028A0009A4601F1430207D8622F0AD8002F00F0A0
:1028B000D880582F00F0A38004F1420584F84270BC
:1028C0003AE0A7F16303152BF6D801A151F823F0E4
:1028D000292900083D290008B9280008B92800085E
:1028E000B9280008B92800083D290008B9280008BF
:1028F000B9280008B9280008B9280008492A0008A2
:102900006D2900082B2A0008B9280008B9280008FA
:102910006B2A0008B92800086D290008B9280008AA
:10292000B9280008332A00082B681A1D1B682A6082
:1029300004F1420584F842300123A3E020682968AD
:10294000060601F104030AD50E682B60002E03DA97
:102950002D23764284F843305E480A2319E00E683E
:102960002B6010F0400F18BF36B2EFE72B682068DD
:10297000191D2960010601D51E6802E04606FBD537
:102980001E8854486F2F0CBF08230A23002184F8A7
:1029900043106568A560002DA2BF216821F00401E5
:1029A00021600EB9002D4DD01546B6FBF3F103FBA7
:1029B0001167C75D05F8017D3746BB420E46F4D965
:1029C000082B0BD12368DE0708D52369616899427B
:1029D000DEBF302305F8013C05F1FF35521B2261B3
:1029E000CDF800A04B4603AA21464046FFF7E2FE81
:1029F00001304CD14FF0FF3004B0BDE8F0873548CE
:102A000081F845702968236851F8046B29601D0618
:102A100014D5DF0744BF43F0200323601EB92368A9
:102A200023F0200323601023B0E7236843F0200342
:102A300023607823284884F84530E3E7590648BFE7
:102A4000B6B2E6E71546BBE72B6826686169181D34
:102A5000286035061B6801D5196002E07006FBD5B9
:102A60001980002323611546BAE72B681A1D2A60D6
:102A70001D68626800212846FDF7D2FB08B1401BA3
:102A8000606063682361002384F84330A8E723690A
:102A90002A4649464046D0470130ABD023689B07C1
:102AA00013D4E068039B9842B8BF1846A4E70123FB
:102AB000324649464046D04701309BD00135E36855
:102AC00003995B1AAB42F2DCEBE7002504F119062F
:102AD000F5E700BF9D2D0008AE2D00080A44914285
:102AE00000F1FF3300D1704710B511F8014B03F826
:102AF000014F9142F9D110BD884210B501EB02049B
:102B000002D98442234607D8431EA14208D011F8B7
:102B1000012B03F8012FF8E7024401468A4200D155
:102B200010BD13F8014D02F8014DF7E737B5002944
:102B300044D051F8043C0190002BA1F10404B8BF2B
:102B4000E41800F0CFF81E4A0198136833B96360A7
:102B5000146003B0BDE8304000F0CAB8A34208D901
:102B6000256861198B4201BF19685B6849192160AA
:102B7000EDE71A465B680BB1A342FAD91168551804
:102B8000A5420BD1246821445418A3421160E0D11E
:102B90001C685B68536021441160DAE702D90C239A
:102BA0000360D6E7256861198B4204BF19685B682A
:102BB000636004BF491921605460CAE703B030BDA7
:102BC00060010020F8B5CD1C25F0030508350C2D5B
:102BD00038BF0C25002D064601DBA94203D90C2382
:102BE00033600020F8BD00F07DF821490A681446E2
:102BF0009CB9204F3B6823B92146304600F062F86B
:102C000038602946304600F05DF8431C23D10C2380
:102C10003360304600F06CF8E3E723685B1B17D4A1
:102C20000B2B03D923601C44256004E06368A24297
:102C30000CBF0B605360304600F05AF804F10B00F3
:102C4000231D20F00700C21ACCD01B1AA350C9E7DD
:102C500022466468CCE7C41C24F00304A042E3D0FD
:102C6000211A304600F02EF80130DDD1CFE700BF49
:102C70006001002064010020F8B5074614460E46A6
:102C800021B9BDE8F8401146FFF79CBF22B9FFF714
:102C90004DFF25462846F8BD00F030F8A0420FD27F
:102CA00021463846FFF78EFF05460028F2D0314610
:102CB0002246FFF713FF31463846FFF737FFE9E7B3
:102CC0003546E7E738B5064D0023044608462B6035
:102CD00000F01EF8431C02D12B6803B1236038BDFD
:102CE00068010020014800F011B800BF6C0100200D
:102CF000014800F00CB800BF6C01002051F8043C02
:102D0000181F002BBCBF0B58C01870477047704786
:102D1000044A05491368002B08BF0B46184410608D
:102D2000184670477001002078010020F8B500BFF8
:102D3000F8BC08BC9E467047F8B500BFF8BC08BC9C
:042D40009E467047F4
:102D44004D65737361676520726563656976656453
:102D54003A2049443A25782025782025782025648E
:102D64002025782025782025782025780D0A000054
:102D74000000000000000000010203040607080927
:102D84000000000001020304232D302B2000686C96
:102D94004C0065666745464700303132333435367A
:102DA40037383941424344454600303132333435B3
:0C2DB400363738396162636465660000E0
:082DC00030D5FF7F0100000087
:042DC800F501000809
:042DCC00D101000829
:102DD00001010000100000000024F4001000002099
:102DE00000000000000000000000000000000000E3
:102DF00000000000000000000000000000000000D3
:102E000000000000000000000000000000000000C2
:102E100000000000000000000000000000000000B2
:102E200000000000000000000000000000000000A2
:102E30000000000000000000000000000000000092
:0400000508002411BA
:00000001FF
